{
  "contractName": "DebugBase",
  "abi": [
    {
      "anonymous": false,
      "inputs": [
        {
          "indexed": true,
          "internalType": "address",
          "name": "_msgSender",
          "type": "address"
        },
        {
          "indexed": true,
          "internalType": "address",
          "name": "_to",
          "type": "address"
        },
        {
          "indexed": false,
          "internalType": "bytes",
          "name": "_data",
          "type": "bytes"
        },
        {
          "indexed": false,
          "internalType": "uint256",
          "name": "_wei",
          "type": "uint256"
        },
        {
          "indexed": false,
          "internalType": "bool",
          "name": "_success",
          "type": "bool"
        },
        {
          "indexed": false,
          "internalType": "bytes",
          "name": "_resultData",
          "type": "bytes"
        }
      ],
      "name": "Forwarded",
      "type": "event"
    },
    {
      "constant": false,
      "inputs": [
        {
          "internalType": "address",
          "name": "_to",
          "type": "address"
        },
        {
          "internalType": "bytes",
          "name": "_data",
          "type": "bytes"
        }
      ],
      "name": "forward",
      "outputs": [
        {
          "internalType": "bool",
          "name": "",
          "type": "bool"
        },
        {
          "internalType": "bytes",
          "name": "",
          "type": "bytes"
        }
      ],
      "payable": true,
      "stateMutability": "payable",
      "type": "function"
    },
    {
      "constant": true,
      "inputs": [],
      "name": "blockTimestamp",
      "outputs": [
        {
          "internalType": "uint256",
          "name": "",
          "type": "uint256"
        }
      ],
      "payable": false,
      "stateMutability": "view",
      "type": "function"
    }
  ],
  "bytecode": "0x608060405234801561001057600080fd5b5061040f806100206000396000f3fe6080604052600436106100295760003560e01c80636fadcf721461002e578063adb618321461018d575b600080fd5b6101076004803603604081101561004457600080fd5b81019080803573ffffffffffffffffffffffffffffffffffffffff1690602001909291908035906020019064010000000081111561008157600080fd5b82018360208201111561009357600080fd5b803590602001918460018302840111640100000000831117156100b557600080fd5b91908080601f016020809104026020016040519081016040528093929190818152602001838380828437600081840152601f19601f8201169050808301925050505050505091929192905050506101b8565b604051808315151515815260200180602001828103825283818151815260200191508051906020019080838360005b83811015610151578082015181840152602081019050610136565b50505050905090810190601f16801561017e5780820380516001836020036101000a031916815260200191505b50935050505060405180910390f35b34801561019957600080fd5b506101a26103d2565b6040518082815260200191505060405180910390f35b60006060600060608573ffffffffffffffffffffffffffffffffffffffff1634866040518082805190602001908083835b6020831061020c57805182526020820191506020810190506020830392506101e9565b6001836020036101000a03801982511681845116808217855250505050505090500191505060006040518083038185875af1925050503d806000811461026e576040519150601f19603f3d011682016040523d82523d6000602084013e610273565b606091505b50915091508573ffffffffffffffffffffffffffffffffffffffff163373ffffffffffffffffffffffffffffffffffffffff167f0c991d70033760b32e5748ac2414f25b432c49b28384ae56735d92f79468e1f68734868660405180806020018581526020018415151515815260200180602001838103835287818151815260200191508051906020019080838360005b8381101561031f578082015181840152602081019050610304565b50505050905090810190601f16801561034c5780820380516001836020036101000a031916815260200191505b50838103825284818151815260200191508051906020019080838360005b8381101561038557808201518184015260208101905061036a565b50505050905090810190601f1680156103b25780820380516001836020036101000a031916815260200191505b50965050505050505060405180910390a381819350935050509250929050565b60004290509056fea265627a7a72315820c966ed2a99fa305beb05ccc00a992148998bcb37a24c7a0e4017a0df196e6f9164736f6c63430005110032",
  "source": "pragma solidity ^0.5.0;\n\ncontract DebugBase\n{\n    event Forwarded(\n        address indexed _msgSender,\n        address indexed _to,\n        bytes _data,\n        uint _wei,\n        bool _success,\n        bytes _resultData);\n    function forward(address _to, bytes memory _data)\n        public\n        payable\n        returns (bool, bytes memory)\n    {\n        (bool success, bytes memory resultData) = _to.call.value(msg.value)(_data);\n        emit Forwarded(msg.sender, _to, _data, msg.value, success, resultData);\n        return (success, resultData);\n    }\n\n    function blockTimestamp()\n        public\n        view\n        returns (uint256)\n    {\n        return block.timestamp;\n    }\n}",
  "sourcePath": "/Users/sjalq/git/dEth/__tmp/smart-contracts/common.5/DebugBase.sol",
  "compiler": {
    "name": "solc",
    "version": "0.5.17+commit.d19bba13.Emscripten.clang"
  },
  "schemaVersion": "3.3.4",
  "updatedAt": "2021-07-07T13:24:57.622Z",
  "devdoc": {
    "methods": {}
  },
  "userdoc": {
    "methods": {}
  }
}