{
  "contractName": "Gulper",
  "abi": [
    {
      "inputs": [],
      "payable": false,
      "stateMutability": "nonpayable",
      "type": "constructor"
    },
    {
      "anonymous": false,
      "inputs": [
        {
          "indexed": false,
          "internalType": "address",
          "name": "_from",
          "type": "address"
        },
        {
          "indexed": false,
          "internalType": "uint256",
          "name": "_amount",
          "type": "uint256"
        }
      ],
      "name": "ethReceived",
      "type": "event"
    },
    {
      "anonymous": false,
      "inputs": [
        {
          "indexed": false,
          "internalType": "uint256",
          "name": "_ether",
          "type": "uint256"
        },
        {
          "indexed": false,
          "internalType": "uint256",
          "name": "_poolTokens",
          "type": "uint256"
        },
        {
          "indexed": false,
          "internalType": "uint256",
          "name": "_pokeReward",
          "type": "uint256"
        }
      ],
      "name": "gulped",
      "type": "event"
    },
    {
      "payable": true,
      "stateMutability": "payable",
      "type": "fallback"
    },
    {
      "constant": true,
      "inputs": [],
      "name": "POOL",
      "outputs": [
        {
          "internalType": "address",
          "name": "",
          "type": "address"
        }
      ],
      "payable": false,
      "stateMutability": "view",
      "type": "function"
    },
    {
      "constant": true,
      "inputs": [],
      "name": "WETH",
      "outputs": [
        {
          "internalType": "address",
          "name": "",
          "type": "address"
        }
      ],
      "payable": false,
      "stateMutability": "view",
      "type": "function"
    },
    {
      "constant": true,
      "inputs": [],
      "name": "getGulpDetails",
      "outputs": [
        {
          "internalType": "uint256",
          "name": "_wethBalanceToConvert",
          "type": "uint256"
        },
        {
          "internalType": "uint256",
          "name": "_minTokensToClaim",
          "type": "uint256"
        },
        {
          "internalType": "uint256",
          "name": "_pokeReward",
          "type": "uint256"
        }
      ],
      "payable": false,
      "stateMutability": "view",
      "type": "function"
    },
    {
      "constant": false,
      "inputs": [],
      "name": "gulp",
      "outputs": [],
      "payable": false,
      "stateMutability": "nonpayable",
      "type": "function"
    },
    {
      "constant": false,
      "inputs": [],
      "name": "approveWethToPool",
      "outputs": [],
      "payable": false,
      "stateMutability": "nonpayable",
      "type": "function"
    }
  ],
  "bytecode": "0x608060405234801561001057600080fd5b50610e6b806100206000396000f3fe60806040526004361061004a5760003560e01c80634179740b146100b75780637535d246146100f057806394909e6214610147578063ad5c46481461015e578063f62d487d146101b5575b7ffe2d73074d233633e644a6fb7186458fbf422add1c18d996efd14ffbece6f2b23334604051808373ffffffffffffffffffffffffffffffffffffffff1673ffffffffffffffffffffffffffffffffffffffff1681526020018281526020019250505060405180910390a1005b3480156100c357600080fd5b506100cc6101cc565b60405180848152602001838152602001828152602001935050505060405180910390f35b3480156100fc57600080fd5b5061010561057f565b604051808273ffffffffffffffffffffffffffffffffffffffff1673ffffffffffffffffffffffffffffffffffffffff16815260200191505060405180910390f35b34801561015357600080fd5b5061015c610597565b005b34801561016a57600080fd5b506101736109c8565b604051808273ffffffffffffffffffffffffffffffffffffffff1673ffffffffffffffffffffffffffffffffffffffff16815260200191505060405180910390f35b3480156101c157600080fd5b506101ca6109e0565b005b60008060008047905060006102b573c02aaa39b223fe8d0a0e5c4f27ead9083c756cc273ffffffffffffffffffffffffffffffffffffffff166370a08231306040518263ffffffff1660e01b8152600401808273ffffffffffffffffffffffffffffffffffffffff1673ffffffffffffffffffffffffffffffffffffffff16815260200191505060206040518083038186803b15801561026b57600080fd5b505afa15801561027f573d6000803e3d6000fd5b505050506040513d602081101561029557600080fd5b810190808051906020019092919050505083610aed90919063ffffffff16565b90506102cc6103e882610b7590919063ffffffff16565b92506102e18382610bbf90919063ffffffff16565b9450600073c02aaa39b223fe8d0a0e5c4f27ead9083c756cc273ffffffffffffffffffffffffffffffffffffffff166370a08231735277a42ef95eca7637ffa9e69b65a12a089fe12b6040518263ffffffff1660e01b8152600401808273ffffffffffffffffffffffffffffffffffffffff1673ffffffffffffffffffffffffffffffffffffffff16815260200191505060206040518083038186803b15801561038a57600080fd5b505afa15801561039e573d6000803e3d6000fd5b505050506040513d60208110156103b457600080fd5b810190808051906020019092919050505090506000735277a42ef95eca7637ffa9e69b65a12a089fe12b73ffffffffffffffffffffffffffffffffffffffff166318160ddd6040518163ffffffff1660e01b815260040160206040518083038186803b15801561042357600080fd5b505afa158015610437573d6000803e3d6000fd5b505050506040513d602081101561044d57600080fd5b810190808051906020019092919050505090506000735277a42ef95eca7637ffa9e69b65a12a089fe12b73ffffffffffffffffffffffffffffffffffffffff16638656b65384674563918244f4000085678ac7230489e800008d67016345785d8a00006040518763ffffffff1660e01b815260040180878152602001868152602001858152602001848152602001838152602001828152602001965050505050505060206040518083038186803b15801561050757600080fd5b505afa15801561051b573d6000803e3d6000fd5b505050506040513d602081101561053157600080fd5b8101908080519060200190929190505050905061057364174876e80061056564161e70f60084610c0990919063ffffffff16565b610b7590919063ffffffff16565b96505050505050909192565b735277a42ef95eca7637ffa9e69b65a12a089fe12b81565b60008060006105a46101cc565b92509250925073c02aaa39b223fe8d0a0e5c4f27ead9083c756cc273ffffffffffffffffffffffffffffffffffffffff1663d0e30db0476040518263ffffffff1660e01b81526004016000604051808303818588803b15801561060657600080fd5b505af115801561061a573d6000803e3d6000fd5b5050505050735277a42ef95eca7637ffa9e69b65a12a089fe12b73ffffffffffffffffffffffffffffffffffffffff16635db3427773c02aaa39b223fe8d0a0e5c4f27ead9083c756cc285856040518463ffffffff1660e01b8152600401808473ffffffffffffffffffffffffffffffffffffffff1673ffffffffffffffffffffffffffffffffffffffff1681526020018381526020018281526020019350505050600060405180830381600087803b1580156106d657600080fd5b505af11580156106ea573d6000803e3d6000fd5b505050506000735277a42ef95eca7637ffa9e69b65a12a089fe12b73ffffffffffffffffffffffffffffffffffffffff166370a08231306040518263ffffffff1660e01b8152600401808273ffffffffffffffffffffffffffffffffffffffff1673ffffffffffffffffffffffffffffffffffffffff16815260200191505060206040518083038186803b15801561078157600080fd5b505afa158015610795573d6000803e3d6000fd5b505050506040513d60208110156107ab57600080fd5b81019080805190602001909291905050509050735277a42ef95eca7637ffa9e69b65a12a089fe12b73ffffffffffffffffffffffffffffffffffffffff1663a9059cbb6001836040518363ffffffff1660e01b8152600401808373ffffffffffffffffffffffffffffffffffffffff1673ffffffffffffffffffffffffffffffffffffffff16815260200182815260200192505050602060405180830381600087803b15801561085a57600080fd5b505af115801561086e573d6000803e3d6000fd5b505050506040513d602081101561088457600080fd5b81019080805190602001909291905050505073c02aaa39b223fe8d0a0e5c4f27ead9083c756cc273ffffffffffffffffffffffffffffffffffffffff16632e1a7d4d836040518263ffffffff1660e01b815260040180828152602001915050600060405180830381600087803b1580156108fd57600080fd5b505af1158015610911573d6000803e3d6000fd5b505050507f9485036cba2fa12b24a98c8f0abfa75898865cf51b0cbe764acb7000b479c2c984828460405180848152602001838152602001828152602001935050505060405180910390a13373ffffffffffffffffffffffffffffffffffffffff168260405180600001905060006040518083038185875af1925050503d80600081146109ba576040519150601f19603f3d011682016040523d82523d6000602084013e6109bf565b606091505b50505050505050565b73c02aaa39b223fe8d0a0e5c4f27ead9083c756cc281565b73c02aaa39b223fe8d0a0e5c4f27ead9083c756cc273ffffffffffffffffffffffffffffffffffffffff1663095ea7b3735277a42ef95eca7637ffa9e69b65a12a089fe12b7fffffffffffffffffffffffffffffffffffffffffffffffffffffffffffffffff6040518363ffffffff1660e01b8152600401808373ffffffffffffffffffffffffffffffffffffffff1673ffffffffffffffffffffffffffffffffffffffff16815260200182815260200192505050602060405180830381600087803b158015610aaf57600080fd5b505af1158015610ac3573d6000803e3d6000fd5b505050506040513d6020811015610ad957600080fd5b810190808051906020019092919050505050565b600080828401905083811015610b6b576040517f08c379a000000000000000000000000000000000000000000000000000000000815260040180806020018281038252601b8152602001807f536166654d6174683a206164646974696f6e206f766572666c6f77000000000081525060200191505060405180910390fd5b8091505092915050565b6000610bb783836040518060400160405280601a81526020017f536166654d6174683a206469766973696f6e206279207a65726f000000000000815250610c8f565b905092915050565b6000610c0183836040518060400160405280601e81526020017f536166654d6174683a207375627472616374696f6e206f766572666c6f770000815250610d55565b905092915050565b600080831415610c1c5760009050610c89565b6000828402905082848281610c2d57fe5b0414610c84576040517f08c379a0000000000000000000000000000000000000000000000000000000008152600401808060200182810382526021815260200180610e166021913960400191505060405180910390fd5b809150505b92915050565b60008083118290610d3b576040517f08c379a00000000000000000000000000000000000000000000000000000000081526004018080602001828103825283818151815260200191508051906020019080838360005b83811015610d00578082015181840152602081019050610ce5565b50505050905090810190601f168015610d2d5780820380516001836020036101000a031916815260200191505b509250505060405180910390fd5b506000838581610d4757fe5b049050809150509392505050565b6000838311158290610e02576040517f08c379a00000000000000000000000000000000000000000000000000000000081526004018080602001828103825283818151815260200191508051906020019080838360005b83811015610dc7578082015181840152602081019050610dac565b50505050905090810190601f168015610df45780820380516001836020036101000a031916815260200191505b509250505060405180910390fd5b506000838503905080915050939250505056fe536166654d6174683a206d756c7469706c69636174696f6e206f766572666c6f77a265627a7a7231582047e1efe8c7bbed79a2895ee2d9e64d8d3cc672f48a84692071409aaede82583764736f6c63430005110032",
  "source": "pragma solidity ^0.5.0;\n\nimport \"../../common.5/openzeppelin/math/SafeMath.sol\";\nimport \"../../common.5/openzeppelin/token/ERC20/IERC20.sol\";\n\ncontract IERC20Wrapper is IERC20\n{\n    function deposit() payable public;\n    function withdraw(uint _amount) public;\n}\n\ncontract BalancerPool is IERC20 \n{   \n    function calcPoolOutGivenSingleIn(\n            uint tokenBalanceIn,\n            uint tokenWeightIn,\n            uint poolSupply,\n            uint totalWeight,\n            uint tokenAmountIn,\n            uint swapFee)\n        public pure\n        returns (uint poolAmountOut);\n\n    function joinswapExternAmountIn(\n            address tokenIn,\n            uint256 tokenAmountIn,\n            uint256 minPoolAmountOut)\n        public;\n}\n\ncontract Gulper\n{\n    // goal: a contract to receive funds in the form of eth and erc20s and spend them in predetermined ways\n\n    using SafeMath for uint256;\n\n    constructor () public { }\n\n    address public constant WETH = 0xC02aaA39b223FE8D0A0e5C4F27eAD9083C756Cc2;\n    address public constant POOL = 0x5277a42ef95ECa7637fFa9E69B65A12A089FE12b;\n\n    event gulped(uint _ether, uint _poolTokens, uint _pokeReward);\n\n    function getGulpDetails()\n        public\n        view\n        returns (uint _wethBalanceToConvert, uint _minTokensToClaim, uint _pokeReward)\n    {\n        uint ethBalance = address(this).balance;\n        uint wethBalance = ethBalance.add(IERC20Wrapper(WETH).balanceOf(address(this)));\n        // following line pays out 0.1% of the weth to the person poking this contract\n        _pokeReward = wethBalance.div(1000);\n        _wethBalanceToConvert = wethBalance.sub(_pokeReward);\n        uint wethPoolBalance = IERC20Wrapper(WETH).balanceOf(POOL);\n        uint poolBalance = BalancerPool(POOL).totalSupply();\n        uint tokensOut = BalancerPool(POOL)\n            .calcPoolOutGivenSingleIn(\n                wethPoolBalance,\n                5 * 10**18,\n                poolBalance,\n                10 * 10**18,\n                _wethBalanceToConvert,\n                10**17);\n        _minTokensToClaim = tokensOut.mul(95 * 10**9).div(100 * 10**9);\n    }\n\n    function gulp() \n        public\n    {\n        // goals: \n        // 1. take the ether balance of address(this) and send it to the permafrost\n\n        // logic:\n        // *get the eth balance of this\n        // *make wrapped ether\n        // *calculate the min amount of pool tokens that we should receive for that much eth\n        // *call joinswapExternAmountIn() for that amount of weth\n        // *send the pool tokens to 0x01\n        // *send a reward to msg.sender for poking the contract. \n\n        (uint wethBalanceToConvert, uint minTokensToClaim, uint pokeReward) = getGulpDetails();\n        IERC20Wrapper(WETH).deposit.value(address(this).balance)();\n        BalancerPool(POOL).joinswapExternAmountIn(WETH, wethBalanceToConvert, minTokensToClaim);\n        uint poolTokensToBurn = BalancerPool(POOL).balanceOf(address(this)); \n        BalancerPool(POOL).transfer(address(1), poolTokensToBurn);\n\n        IERC20Wrapper(WETH).withdraw(pokeReward);\n        emit gulped(wethBalanceToConvert, poolTokensToBurn, pokeReward);\n        msg.sender.call.value(pokeReward)(\"\");\n    }\n\n    event ethReceived(address _from, uint _amount); \n    \n    function approveWethToPool()\n        public\n    {\n        IERC20Wrapper(WETH).approve(POOL, uint(-1));\n    }\n\n    function () \n        external \n        payable \n    { \n        emit ethReceived(msg.sender, msg.value);\n    }\n}",
  "sourcePath": "/Users/sjalq/git/dEth/__tmp/smart-contracts/dEth2/contracts/Gulper.sol",
  "compiler": {
    "name": "solc",
    "version": "0.5.17+commit.d19bba13.Emscripten.clang"
  },
  "schemaVersion": "3.3.4",
  "updatedAt": "2021-07-07T13:24:57.974Z",
  "devdoc": {
    "methods": {}
  },
  "userdoc": {
    "methods": {}
  }
}